:020000040800F2
:1000000000500020190D0008A90C0008AF0C0008D2
:10001000B50C0008BB0C0008C10C00080000000073
:10002000000000000000000000000000C70C0008F5
:10003000D30C000800000000DF0C0008EB0C0008E7
:10004000610D0008610D0008610D0008610D0008D8
:10005000610D0008610D0008610D0008610D0008C8
:10006000610D0008610D0008610D0008F90C000821
:10007000610D0008610D0008610D0008610D0008A8
:10008000610D0008610D0008610D0008610D000898
:10009000610D0008610D0008610D0008610D000888
:1000A000610D0008610D0008610D0008610D000878
:1000B000610D0008610D0008610D0008610D000868
:1000C000610D0008610D0008610D0008610D000858
:1000D000610D0008610D0008610D0008610D000848
:1000E000610D0008610D0008610D000800000000AE
:1000F0000000000000000000000000000000000000
:0C01000000000000000000005FF808F1A3
:10010C0010B5054C237833B9044B13B10448AFF345
:10011C0000800123237010BD14000020000000009B
:10012C00283B000808B5034B1BB103490348AFF348
:10013C00008008BD0000000018000020283B0008CB
:10014C004FF0FF0C1CEAD0521EBF1CEAD15392EAAE
:10015C000C0F93EA0C0F6FD01A4480EA010C40028A
:10016C0018BF5FEA41211ED04FF0006343EA5010E4
:10017C0043EA5111A0FB01310CF00040B1F5000F26
:10018C003EBF490041EAD3715B0040EA010062F1D5
:10019C007F02FD2A1DD8B3F1004F40EBC25008BFBF
:1001AC0020F00100704790F0000F0CF0004C08BFDD
:1001BC0049024CEA502040EA51207F3AC2BFD2F1AA
:1001CC00FF0340EAC250704740F400004FF00003B8
:1001DC00013A5DDC12F1190FDCBF00F000407047F2
:1001EC00C2F10002410021FA02F1C2F1200200FA30
:1001FC0002FC5FEA310040F1000053EA4C0308BFF7
:10020C0020EADC70704792F0000F00F0004C02BF47
:10021C00400010F4000F013AF9D040EA0C0093F0C2
:10022C00000F01F0004C02BF490011F4000F013B1C
:10023C00F9D041EA0C018FE70CEAD15392EA0C0F8A
:10024C0018BF93EA0C0F0AD030F0004C18BF31F0F5
:10025C00004CD8D180EA010000F00040704790F0CB
:10026C00000F17BF90F0004F084691F0000F91F06F
:10027C00004F14D092EA0C0F01D142020FD193EA35
:10028C000C0F03D14B0218BF084608D180EA0100BD
:10029C0000F0004040F0FE4040F40000704740F099
:1002AC00FE4040F44000704780F0004002E000BF88
:1002BC0081F0004142001FBF5FEA410392EA030F45
:1002CC007FEA226C7FEA236C6AD04FEA1262D2EB8F
:1002DC001363C1BFD218414048404140B8BF5B4294
:1002EC00192B88BF704710F0004F40F4000020F02D
:1002FC007F4018BF404211F0004F41F4000121F043
:10030C007F4118BF494292EA030F3FD0A2F101028C
:10031C0041FA03FC10EB0C00C3F1200301FA03F1CA
:10032C0000F0004302D5494260EB4000B0F5000FED
:10033C0013D3B0F1807F06D340084FEA310102F1AC
:10034C000102FE2A51D2B1F1004F40EBC25008BF5E
:10035C0020F0010040EA03007047490040EB000028
:10036C00013A28BFB0F5000FEDD2B0FA80FCACF129
:10037C00080CB2EB0C0200FA0CF0AABF00EBC25056
:10038C0052421843BCBFD0401843704792F0000F44
:10039C0081F4000106BF80F400000132013BB5E797
:1003AC004FEA41037FEA226C18BF7FEA236C21D00D
:1003BC0092EA030F04D092F0000F08BF0846704772
:1003CC0090EA010F1CBF0020704712F07F4F04D140
:1003DC00400028BF40F00040704712F100723CBF53
:1003EC0000F50000704700F0004343F0FE4040F47D
:1003FC00000070477FEA226216BF08467FEA23633B
:10040C000146420206BF5FEA412390EA010F40F425
:10041C00800070474FF0000304E000BF10F0004371
:10042C0048BF40425FEA000C08BF704743F0964358
:10043C0001464FF000001CE050EA010208BF704773
:10044C004FF000030AE000BF50EA010208BF7047FA
:10045C0011F0004302D5404261EB41015FEA010C0F
:10046C0002BF84460146002043F0B64308BFA3F107
:10047C008053A3F50003BCFA8CF2083AA3EBC253E9
:10048C0010DB01FA02FC634400FA02FCC2F1200208
:10049C00BCF1004F20FA02F243EB020008BF20F03F
:1004AC000100704702F1200201FA02FCC2F12002A5
:1004BC0050EA4C0021FA02F243EB020008BF20EA9A
:1004CC00DC70704742000ED2B2F1FE4F0BD34FF0EE
:1004DC009E03B3EB126209D44FEA002343F00043AE
:1004EC0023FA02F070474FF00000704712F1610FD1
:1004FC0001D1420202D14FF0FF3070474FF00000A3
:10050C00704700BF80B582B000AF0346FB80B91DB9
:10051C004FF0FF330122034802F036FA00BF0837D0
:10052C00BD4680BDA400002080B586B000AF7860C9
:10053C007868FFF76FFF03467B6114497869FFF712
:10054C00FFFD03461846FFF7BDFF03463B613B69C1
:10055C001BB2C3F30D031BB243F480431BB2FB81EC
:10056C003B699B0B1BB2C3F30D031BB243F48043DB
:10057C001BB2BB81FB891846FFF7C4FFBB89184629
:10058C00FFF7C0FF00BF1837BD4680BDACC527457F
:10059C0080B582B000AF0346FB804FF40450FFF7E8
:1005AC00B1FF4FF47A70FFF7BFFF4FF44040FFF7F5
:1005BC00A9FFFB881846FFF7A5FF00BF0837BD460B
:1005CC0080BD000080B483B000AF7860034B012283
:1005DC001A7000BF0C37BD4680BC70478C110020D0
:1005EC0080B483B000AF7860034B01221A7000BF57
:1005FC000C37BD4680BC70478C11002080B500AF15
:10060C0000F0AAFB00F040F800F0CCF900F0ACF9D7
:10061C0000F080F900F0C6F800F086F800F0FAF867
:10062C004FF40050FFF7B4FF0F48FFF77DFF4FF476
:10063C0000620E490E4800F0C9FC00210D4802F082
:10064C00EFFB4FF47A7307220B490C4803F065F863
:10065C000B4B1B78002BF4D002210A4801F030FC24
:10066C00074B00221A70ECE7C0D401008C0100206B
:10067C0030000020FC00002000000020440100207D
:10068C008C1100200008014080B594B000AF07F138
:10069C00280328220021184603F014FA07F114034A
:1006AC0000221A605A609A60DA601A613B1D0022BF
:1006BC001A605A609A60DA600223BB620123BB6342
:1006CC001023FB6300237B6407F12803184601F019
:1006DC0011FC0346002B01D000F096F90F237B612F
:1006EC000023BB610023FB6100233B6200237B6280
:1006FC0007F114030021184601F07EFE0346002B7F
:10070C0001D000F081F902237B600023FB603B1DCC
:10071C00184601F0FFFF0346002B01D000F074F9DE
:10072C0000BF5037BD4680BD80B584B000AF3B1DC7
:10073C0000221A605A609A60184B194A1A60174BBB
:10074C0000229A60154B00221A73144B00221A7562
:10075C00124B0022DA61114B00225A600F4B01221E
:10076C001A610E4800F05AFB0346002B01D000F032
:10077C004BF903237B600123BB600023FB603B1D13
:10078C001946064800F00AFD0346002B01D000F084
:10079C003BF900BF1037BD4680BD00BF30000020C4
:1007AC000024014080B500AF184B194A1A60174B52
:1007BC004FF482725A60154B4FF400429A60134BFF
:1007CC004FF40062DA60114B02221A610F4B0022C7
:1007DC005A610E4B4FF480229A610C4B2022DA6145
:1007EC000A4B00221A62094B00225A62074B002264
:1007FC009A62064B0A22DA62044802F041F8034678
:10080C00002B01D000F000F900BF80BDA400002037
:10081C000030014080B592B000AF07F140030022D8
:10082C001A605A6007F1240300221A605A609A6019
:10083C00DA601A615A619A613B1D20220021184628
:10084C0003F040F9314B324A1A60304B00225A60A7
:10085C002E4B00229A602D4B40F21F32DA602B4B4C
:10086C0000221A61294B00225A61284B00229A61FE
:10087C00264802F086FA0346002B01D000F0C4F89B
:10088C0040233B6400237B6407F1400319461F4857
:10089C0002F044FE0346002B01D000F0B5F86023B3
:1008AC007B620A23BB620023FB6200233B630023B1
:1008BC007B630023BB630023FB6307F1240300224B
:1008CC001946124802F04EFB0346002B01D000F0F3
:1008DC009BF800237B600023BB600023FB6000239C
:1008EC003B6100237B614FF40053BB6100233B62EF
:1008FC003B1D1946054802F06FFE0346002B01D044
:10090C0000F082F800BF4837BD4680BDFC000020D7
:10091C00002C014080B500AF114B124A1A60104BED
:10092C004FF496525A600E4B00229A600C4B0022E8
:10093C00DA600B4B00221A61094B0C225A61084BEE
:10094C0000229A61064B0022DA61054802F095FEFE
:10095C000346002B01D000F057F800BF80BD00BF4C
:10096C00440100200038014080B582B000AF0C4B30
:10097C005B690B4A43F001035361094B5B6903F05C
:10098C0001037B607B68002200210B2000F0D7FE66
:10099C000B2000F0F0FE00BF0837BD4680BD00BF45
:1009AC000010024080B586B000AF07F108030022AA
:1009BC001A605A609A60DA60114B9B69104A43F0D6
:1009CC00040393610E4B9B6903F004037B607B680B
:1009DC00002202210B4801F05BFA0223BB600123C9
:1009EC00FB6000233B6102237B6107F1080319467E
:1009FC00044801F0C9F800BF1837BD4680BD00BFE0
:100A0C00001002400008014080B400AF72B600BF75
:100A1C00FEE7000080B485B000AF154B9B69144A0B
:100A2C0043F001039361124B9B6903F00103BB601C
:100A3C00BB680F4BDB690E4A43F08053D3610C4B00
:100A4C00DB6903F080537B607B680A4B5B68FB605F
:100A5C00FB6823F0E063FB60FB6843F08063FB60A2
:100A6C00044AFB68536000BF1437BD4680BC704716
:100A7C00001002400000014080B588B000AF7860E3
:100A8C0007F1100300221A605A609A60DA607B68E2
:100A9C001B68294A93424AD1284B9B69274A43F445
:100AAC0000739361254B9B6903F40073FB60FB6837
:100ABC00224B9B69214A43F0040393611F4B9B69B2
:100ACC0003F00403BB60BB6808233B6103237B6119
:100ADC0007F1100319461A4801F056F8194B1A4A37
:100AEC001A60184B00225A60164B00229A60154B64
:100AFC008022DA60134B4FF480721A61114B4FF461
:100B0C0080625A610F4B20229A610E4B4FF4805237
:100B1C00DA610C4800F04AFE0346002B01D0FFF7C7
:100B2C0073FF7B68074A1A62064A7B68536200BFF0
:100B3C002037BD4680BD00BF00240140001002409C
:100B4C0000080140600000200800024080B588B019
:100B5C0000AF786007F1100300221A605A609A60A7
:100B6C00DA607B681B68154A934223D1144B9B694E
:100B7C00134A43F480539361114B9B6903F48053E4
:100B8C00FB60FB680E4B9B690D4A43F004039361B9
:100B9C000B4B9B6903F00403BB60BB68B0233B6148
:100BAC0002237B610323FB6107F1100319460548FF
:100BBC0000F0EAFF00BF2037BD4680BD0030014089
:100BCC00001002400008014080B485B000AF78608E
:100BDC007B681B68094A93420BD1094B9B69084AF5
:100BEC0043F400639361064B9B6903F40063FB6061
:100BFC00FB6800BF1437BD4680BC7047002C014019
:100C0C000010024080B588B000AF786007F1100387
:100C1C0000221A605A609A60DA607B681B681C4A72
:100C2C00934231D11B4B9B691A4A43F48043936125
:100C3C00184B9B6903F48043FB60FB68154B9B6965
:100C4C00144A43F004039361124B9B6903F00403B1
:100C5C00BB60BB684FF400733B6102237B610323D1
:100C6C00FB6107F1100319460B4800F08DFF4FF4A0
:100C7C0080633B6100237B610023BB6107F11003A0
:100C8C001946054800F080FF00BF2037BD4680BDE7
:100C9C0000380140001002400008014080B400AF51
:100CAC00FEE780B400AFFEE780B400AFFEE780B48F
:100CBC0000AFFEE780B400AFFEE780B400AF00BF2A
:100CCC00BD4680BC704780B400AF00BFBD4680BC41
:100CDC00704780B400AF00BFBD4680BC704780B584
:100CEC0000AF00F07FF800BF80BD000080B500AF02
:100CFC00024800F015FE00BF80BD00BF6000002060
:100D0C0080B400AF00BFBD4680BC7047FFF7F8FF52
:100D1C000B480C490C4A002302E0D458C45004334D
:100D2C00C4188C42F9D3094A094C002301E0136022
:100D3C000432A242FBD302F0CDFEFFF75FFC7047FA
:100D4C000000002014000020743B00081400002058
:100D5C0094110020FEE7000080B500AF084B1B6823
:100D6C00074A43F010031360032000F0DDFC0F2052
:100D7C0000F008F8FFF74EFE0023184680BD00BFB8
:100D8C000020024080B582B000AF7860124B1A6828
:100D9C00124B1B7819464FF47A73B3FBF1F3B2FB89
:100DAC00F3F3184600F0F5FC0346002B01D00123A9
:100DBC000EE07B680F2B0AD8002279684FF0FF30C9
:100DCC0000F0BDFC064A7B681360002300E00123A1
:100DDC0018460837BD4680BD0800002010000020D2
:100DEC000C00002080B400AF054B1B781A46054B55
:100DFC001B681344034A136000BFBD4680BC704798
:100E0C00100000209011002080B400AF024B1B6832
:100E1C001846BD4680BC70479011002080B586B046
:100E2C0000AF78600023FB7500233B610023BB609F
:100E3C000023FB607B68002B01D10123BEE07B68A3
:100E4C009B68002B7B689B6A002B09D17B68002276
:100E5C00DA627B68002283F824207868FFF70CFEA6
:100E6C00786800F0EDFA0346FB757B689B6A03F02B
:100E7C001003002B40F09980FB7D002B40F09580F7
:100E8C007B689B6A23F4885323F0020343F002022D
:100E9C007B689A627B685A687B68DB691A437B685B
:100EAC001B7B5B001343BA681343BB607B689B6876
:100EBC00B3F5807F03D07B689B68012B02D14FF484
:100ECC00807300E000233A6913433B617B681B7D10
:100EDC00012B19D17B681B7B002B09D17B689B698B
:100EEC00013B5A033B69134343F400633B610BE042
:100EFC007B689B6A43F020027B689A627B68DB6AA2
:100F0C0043F001027B68DA627B681B685B6823F440
:100F1C0069417B681B683A690A435A607B681B68A5
:100F2C009A68284B13407A681268B9680B4393602F
:100F3C007B689B68B3F5807F03D07B689B68012B33
:100F4C0004D17B681B69013B1B05FB607B681B683C
:100F5C00DB6A23F470017B681B68FA680A43DA6267
:100F6C007B681B689A68184B1340BA689A420BD17D
:100F7C007B680022DA627B689B6A23F0030343F0F0
:100F8C0001027B689A6218E07B689B6A23F012036B
:100F9C0043F010027B689A627B68DB6A43F00102C3
:100FAC007B68DA620123FB7507E07B689B6A43F080
:100FBC0010027B689A620123FB75FB7D184618377B
:100FCC00BD4680BDFDF7E1FFFE0E1FFF80B586B06C
:100FDC0000AFF860B9607A600023FB75FB681B6892
:100FEC00644A934204D0FB681B68634A934206D15F
:100FFC00604B5B6803F47023002B40F0B380FB68FC
:10100C0093F82430012B01D10223AEE0FB680122BE
:10101C0083F82420F86800F0B9F90346FB75FB7DD2
:10102C00002B40F09A80FB689B6A23F4706323F0DA
:10103C00010343F48072FB689A62FB681B684E4A9A
:10104C00934205D14B4B5B6803F47023002B15D1F5
:10105C00FB689B6A23F48012FB689A62FB681B682E
:10106C005B6803F48063002B26D0FB689B6A23F437
:10107C00405343F48052FB689A621DE0FB689B6A04
:10108C0043F48012FB689A62FB681B68394A9342EE
:10109C0004D0FB681B68384A93420DD1354B5B6812
:1010AC0003F48063002B07D0FB689B6A23F4405346
:1010BC0043F48052FB689A62FB689B6A03F480538A
:1010CC00002B06D0FB68DB6A23F00602FB68DA62B1
:1010DC0002E0FB680022DA62FB68002283F824201D
:1010EC00FB681B6A254A9A62FB681B6A244ADA620F
:1010FC00FB681B6A234A1A63FB681B686FF00202C9
:10110C001A60FB681B689A68FB681B6842F4807263
:10111C009A60FB68186AFB681B684C331946BA68FE
:10112C007B6800F09DFBFB681B689B6803F46023E5
:10113C00B3F5602F08D1FB681B689A68FB681B68C5
:10114C0042F4A0029A600FE0FB681B689A68FB6887
:10115C001B6842F480129A6006E0FB68002283F858
:10116C00242001E00123FB75FB7D18461837BD4692
:10117C0080BD00BF0024014000280140CF140008AE
:10118C004B1500086715000880B483B000AF786079
:10119C0000BF0C37BD4680BC7047000080B485B0E2
:1011AC0000AF786039600023FB730023BB607B6861
:1011BC0093F82430012B01D10223DCE07B6801225F
:1011CC0083F824203B685B68062B1CD87B681B6863
:1011DC00596B3B685A6813469B001344053B1F220E
:1011EC0002FA03F3DB4319403B6818683B685A6802
:1011FC0013469B001344053B00FA03F27B681B6803
:10120C000A435A633CE03B685B680C2B1CD87B6838
:10121C001B68196B3B685A6813469B001344233BAD
:10122C001F2202FA03F3DB4319403B6818683B6842
:10123C005A6813469B001344233B00FA03F27B6865
:10124C001B680A431A631BE07B681B68D96A3B68FE
:10125C005A6813469B001344413B1F2202FA03F3C6
:10126C00DB4319403B6818683B685A6813469B007F
:10127C001344413B00FA03F27B681B680A43DA62B1
:10128C003B681B68092B1CD97B681B68D9683B68B9
:10129C001A6813465B0013441E3B072202FA03F341
:1012AC00DB4319403B6898683B681A6813465B003F
:1012BC0013441E3B00FA03F27B681B680A43DA6096
:1012CC0019E07B681B6819693B681A6813465B0058
:1012DC001344072202FA03F3DB4319403B68986876
:1012EC003B681A6813465B00134400FA03F27B68F0
:1012FC001B680A431A613B681B68102B03D03B68C0
:10130C001B68112B32D17B681B681D4A934225D177
:10131C007B681B689B6803F40003002B26D17B6859
:10132C001B689A687B681B6842F400029A603B68F1
:10133C001B68102B1AD1134B1B68134AA2FB0323F7
:10134C009A0C13469B0013445B00BB6002E0BB6825
:10135C00013BBB60BB68002BF9D107E07B689B6A43
:10136C0043F020027B689A620123FB737B680022A6
:10137C0083F82420FB7B18461437BD4680BC70478D
:10138C00002401400800002083DE1B4380B584B09C
:10139C0000AF78600023FB600023BB607B681B6898
:1013AC009B6803F00103012B40D07B681B689A6893
:1013BC007B681B6842F001029A601F4B1B681F4A36
:1013CC00A2FB03239B0CBB6002E0BB68013BBB6030
:1013DC00BB68002BF9D1FFF717FDF8601FE0FFF792
:1013EC0013FD0246FB68D31A022B18D97B681B68C5
:1013FC009B6803F00103012B11D07B689B6A43F0BF
:10140C0010027B689A627B68DB6A43F001027B689E
:10141C00DA627B68002283F82420012307E07B68D2
:10142C001B689B6803F00103012BD8D100231846DD
:10143C001037BD4680BD00BF0800002083DE1B4373
:10144C0080B584B000AF78600023FB607B681B68BC
:10145C009B6803F00103012B2ED17B681B689A68F3
:10146C007B681B6822F001029A60FFF7CDFCF860E4
:10147C001BE0FFF7C9FC0246FB68D31A022B14D9F8
:10148C007B681B689B6803F00103012B0DD17B6803
:10149C009B6A43F010027B689A627B68DB6A43F0BC
:1014AC0001027B68DA62012307E07B681B689B689A
:1014BC0003F00103012BDCD0002318461037BD4686
:1014CC0080BD80B584B000AF78607B685B6AFB60E0
:1014DC00FB689B6A03F05003002B27D1FB689B6AC7
:1014EC0043F40072FB689A62FB681B689B6803F408
:1014FC006023B3F5602F15D1FB681B7B002B11D13A
:10150C00FB689B6A23F48072FB689A62FB689B6A97
:10151C0003F48053002B05D1FB689B6A43F0010256
:10152C00FB689A62F868FFF74DF804E0FB681B6AE9
:10153C001B6B7868984700BF1037BD4680BD80B5DF
:10154C0084B000AF78607B685B6AFB60F868FFF77B
:10155C0047F800BF1037BD4680BD80B584B000AFE2
:10156C0078607B685B6AFB60FB689B6A43F04002B7
:10157C00FB689A62FB68DB6A43F00402FB68DA6280
:10158C00F868FFF701FE00BF1037BD4680BD0000B4
:10159C0080B485B000AF78607B6803F00703FB6014
:1015AC000C4BDB68BB60BA684FF6FF031340BB60A3
:1015BC00FB681A02BB68134343F0BF6343F4003368
:1015CC00BB60044ABB68D36000BF1437BD4680BC07
:1015DC00704700BF00ED00E080B400AF044BDB6847
:1015EC001B0A03F007031846BD4680BC704700BFBA
:1015FC0000ED00E080B483B000AF0346FB7197F9B7
:10160C000730002B0BDBFB7903F01F02064997F91F
:10161C0007305B09012000FA02F241F8232000BFD9
:10162C000C37BD4680BC704700E100E080B483B04D
:10163C0000AF03463960FB7197F90730002B0ADBCA
:10164C003B68DAB20C4997F907301201D2B20B445D
:10165C0083F800230AE03B68DAB20849FB7903F00F
:10166C000F03043B1201D2B20B441A7600BF0C37A5
:10167C00BD4680BC704700BF00E100E000ED00E01B
:10168C0080B489B000AFF860B9607A60FB6803F091
:10169C000703FB61FB69C3F10703042B28BF042379
:1016AC00BB61FB690433062B02D9FB69033B00E0E9
:1016BC0000237B614FF0FF32BB6902FA03F3DA437C
:1016CC00BB681A407B699A404FF0FF317B6901FA85
:1016DC0003F3D9437B680B40134318462437BD46AC
:1016EC0080BC704780B582B000AF78607B68013BEE
:1016FC00B3F1807F01D301230FE00A4A7B68013BE1
:10170C0053600F214FF0FF30FFF790FF054B002285
:10171C009A60044B07221A60002318460837BD460E
:10172C0080BD00BF10E000E080B582B000AF7860F3
:10173C007868FFF72DFF00BF0837BD4680BD80B528
:10174C0086B000AF0346B9607A60FB7300237B61FF
:10175C00FFF742FF78617A68B9687869FFF790FF04
:10176C00024697F90F3011461846FFF75FFF00BF8E
:10177C001837BD4680BD80B582B000AF0346FB7103
:10178C0097F907301846FFF735FF00BF0837BD46FD
:10179C0080BD80B582B000AF78607868FFF7A2FF9B
:1017AC00034618460837BD4680BD000080B485B09E
:1017BC0000AF78600023FB607B68002B01D1012314
:1017CC0043E07B681B681A46224B1344224AA2FB57
:1017DC0003231B099A007B681A647B681F4ADA632F
:1017EC007B68022283F821207B681B681B68FB60E6
:1017FC00FB6823F47F5323F03003FB607B685A684B
:10180C007B689B681A437B68DB681A437B681B699F
:10181C001A437B685B691A437B689B691A437B6834
:10182C00DB691343FA681343FB607B681B68FA6837
:10183C001A607B6800229A637B68012283F821205E
:10184C007B68002283F82020002318461437BD46FD
:10185C0080BC7047F8FFFDBFCDCCCCCC0000024063
:10186C0080B586B000AFF860B9607A603B60002349
:10187C00FB75FB6893F82030012B01D102234BE060
:10188C00FB68012283F82020FB6893F82130DBB23F
:10189C00012B3AD1FB68022283F82120FB6800223D
:1018AC009A63FB681B681A68FB681B6822F00102CC
:1018BC001A603B687A68B968F86800F037F9FB6819
:1018CC00DB6A002B08D0FB681B681A68FB681B6876
:1018DC0042F00E021A600FE0FB681B681A68FB6886
:1018EC001B6822F004021A60FB681B681A68FB680C
:1018FC001B6842F00A021A60FB681B681A68FB68D6
:10190C001B6842F001021A6005E0FB68002283F8B4
:10191C0020200223FB75FB7D18461837BD4680BD81
:10192C0080B584B000AF78607B68DB6B1B68FB60B4
:10193C007B681B681B68BB607B681B6C04229A402D
:10194C00FB681340002B4FD0BB6803F00403002B43
:10195C004AD07B681B681B6803F02003002B07D15F
:10196C007B681B681A687B681B6822F004021A608B
:10197C007B681B68664A934229D07B681B68654A62
:10198C00934222D07B681B68634A93421AD07B68CF
:10199C001B68624A934212D07B681B68604A934270
:1019AC000AD07B681B685F4A934202D14FF48003D4
:1019BC000EE04FF080630BE04FF4802308E04FF40F
:1019CC00804305E04FF4806302E0402300E00423F1
:1019DC00554A53607B68DB6A002B00F094807B686F
:1019EC00DB6A786898478EE07B681B6C02229A4011
:1019FC00FB681340002B56D0BB6803F00203002B8E
:101A0C0051D07B681B681B6803F02003002B0BD1A3
:101A1C007B681B681A687B681B6822F00A021A60D4
:101A2C007B68012283F821207B681B68384A93422B
:101A3C0029D07B681B68374A934222D07B681B688D
:101A4C00354A93421AD07B681B68344A934212D0B1
:101A5C007B681B68324A93420AD07B681B68314A08
:101A6C00934202D14FF400130EE04FF000730BE0E1
:101A7C004FF4003308E04FF4005305E04FF40073CB
:101A8C0002E0202300E00223274A53607B680022F7
:101A9C0083F820207B689B6A002B34D07B689B6A80
:101AAC00786898472FE07B681B6C08229A40FB688B
:101ABC001340002B28D0BB6803F00803002B23D065
:101ACC007B681B681A687B681B6822F00E021A6020
:101ADC007B681A6C7B68DB6B012101FA02F25A609D
:101AEC007B6801229A637B68012283F821207B6842
:101AFC00002283F820207B681B6B002B04D07B68B2
:101B0C001B6B7868984700BF00BF1037BD4680BD7F
:101B1C00080002401C000240300002404400024019
:101B2C00580002406C0002400000024080B485B0B6
:101B3C0000AFF860B9607A603B60FB681A6CFB68B8
:101B4C00DB6B012101FA02F25A60FB681B683A68F0
:101B5C005A60FB685B68102B08D1FB681B687A68BD
:101B6C009A60FB681B68BA68DA6007E0FB681B6860
:101B7C00BA689A60FB681B687A68DA6000BF143731
:101B8C00BD4680BC7047000080B48BB000AF78605D
:101B9C00396000237B6200233B6269E101227B6A8E
:101BAC0002FA03F3FB613B681B68FA691340BB61E3
:101BBC00BA69FB699A4240F058813B685B689A4A63
:101BCC0093425ED0984A934275D8984A934258D023
:101BDC00964A93426FD8964A934252D0944A934273
:101BEC0069D8944A93424CD0924A934263D8924A11
:101BFC00934246D0904A93425DD8122B2AD8122B8E
:101C0C0059D801A252F823F08F1C0008691C000857
:101C1C007B1C0008BD1C0008C31C0008C31C00086A
:101C2C00C31C0008C31C0008C31C0008C31C00080C
:101C3C00C31C0008C31C0008C31C0008C31C0008FC
:101C4C00C31C0008C31C0008C31C0008711C00083E
:101C5C00851C0008794A934213D02CE03B68DB6862
:101C6C003B6229E03B68DB6804333B6224E03B6861
:101C7C00DB6808333B621FE03B68DB680C333B627C
:101C8C001AE03B689B68002B02D104233B6213E0F3
:101C9C003B689B68012B05D108233B627B68FA6982
:101CAC001A6109E008233B627B68FA695A6103E018
:101CBC0000233B6200E000BFBB69FF2B01D87B68AF
:101CCC0001E07B6804337B61BB69FF2B02D87B6A24
:101CDC009B0002E07B6A083B9B003B617B691A68B6
:101CEC000F213B6901FA03F3DB431A40396A3B6964
:101CFC0001FA03F31A437B691A603B685B6803F0D3
:101D0C008053002B00F0B1804D4B9B694C4A43F043
:101D1C00010393614A4B9B6903F00103BB60BB68F1
:101D2C00484A7B6A9B08023352F82330FB607B6A7B
:101D3C0003F003039B000F2202FA03F3DB43FA6860
:101D4C001340FB607B68404A934213D07B683F4A48
:101D5C0093420DD07B683E4A934207D07B683D4A44
:101D6C00934201D1032306E0042304E0022302E0A2
:101D7C00012300E000237A6A02F0030292009340F0
:101D8C00FA681343FB602F497B6A9B080233FA689D
:101D9C0041F823203B685B6803F48013002B06D0CA
:101DAC002D4B9A682C49BB6913438B6006E02A4B78
:101DBC009A68BB69DB43284913408B603B685B68BE
:101DCC0003F40013002B06D0234BDA682249BB69BD
:101DDC001343CB6006E0204BDA68BB69DB431E493A
:101DEC001340CB603B685B6803F40033002B06D0D8
:101DFC00194B5A681849BB6913434B6006E0164BE4
:101E0C005A68BB69DB43144913404B603B685B6801
:101E1C0003F48033002B21D00F4B1A680E49BB6999
:101E2C0013430B6021E000BF0000321000003110A2
:101E3C0000002210000021100000121000001110F0
:101E4C00001002400000014000080140000C01405D
:101E5C000010014000140140000401400B4B1A68B3
:101E6C00BB69DB43094913400B607B6A01337B621E
:101E7C003B681A687B6A22FA03F3002B7FF48EAE60
:101E8C0000BF00BF2C37BD4680BC7047000401402A
:101E9C0080B483B000AF78600B467B8013467B70B8
:101EAC007B78002B03D07A887B681A6103E07B88EF
:101EBC001A047B681A6100BF0C37BD4680BC7047A2
:101ECC0080B485B000AF78600B467B807B68DB68A4
:101EDC00FB607A88FB6813401A04FB68D9437B8843
:101EEC000B401A437B681A6100BF1437BD4680BC97
:101EFC007047000080B586B000AF78607B68002B1F
:101F0C0001D1012372E27B681B6803F00103002BF3
:101F1C0000F08780924B5B6803F00C03042B0CD011
:101F2C008F4B5B6803F00C03082B12D18C4B5B6856
:101F3C0003F48033B3F5803F0BD1894B1B6803F45A
:101F4C000033002B6CD07B685B68002B68D10123BD
:101F5C004CE27B685B68B3F5803F06D1804B1B6815
:101F6C007F4A43F4803313602EE07B685B68002B60
:101F7C000CD17B4B1B687A4A23F480331360784B6B
:101F8C001B68774A23F4802313601DE07B685B6831
:101F9C00B3F5A02F0CD1724B1B68714A43F480230C
:101FAC0013606F4B1B686E4A43F4803313600BE075
:101FBC006B4B1B686A4A23F480331360684B1B68B5
:101FCC00674A23F4802313607B685B68002B13D073
:101FDC00FEF71AFF386108E0FEF716FF02463B6970
:101FEC00D31A642B01D9032300E25D4B1B6803F465
:101FFC000033002BF0D014E0FEF706FF386108E048
:10200C00FEF702FF02463B69D31A642B01D9032366
:10201C00ECE1534B1B6803F40033002BF0D100E0D0
:10202C0000BF7B681B6803F00203002B63D04C4B92
:10203C005B6803F00C03002B0BD0494B5B6803F07F
:10204C000C03082B1CD1464B5B6803F48033002B2C
:10205C0016D1434B1B6803F00203002B05D07B68A1
:10206C001B69012B01D00123C0E13D4B1B6823F000
:10207C00F8027B685B69DB00394913430B603AE07B
:10208C007B681B69002B20D0364B01221A60FEF7AF
:10209C00BBFE386108E0FEF7B7FE02463B69D31A77
:1020AC00022B01D90323A1E12D4B1B6803F0020382
:1020BC00002BF0D02A4B1B6823F0F8027B685B697D
:1020CC00DB00274913430B6015E0264B00221A60F6
:1020DC00FEF79AFE386108E0FEF796FE02463B6971
:1020EC00D31A022B01D9032380E11D4B1B6803F08B
:1020FC000203002BF0D17B681B6803F00803002B54
:10210C003AD07B689B69002B19D0174B01221A60BF
:10211C00FEF77AFE386108E0FEF776FE02463B6970
:10212C00D31A022B01D9032360E10D4B5B6A03F038
:10213C000203002BF0D0012000F0CEFA1CE00A4B79
:10214C0000221A60FEF760FE38610FE0FEF75CFEBD
:10215C0002463B69D31A022B08D9032346E100BF80
:10216C00001002400000424280044242924B5B6AE3
:10217C0003F00203002BE9D17B681B6803F0040316
:10218C00002B00F0A6800023FB758B4BDB6903F062
:10219C008053002B0DD1884BDB69874A43F0805369
:1021AC00D361854BDB6903F08053BB60BB680123B3
:1021BC00FB75824B1B6803F48073002B18D17F4B8B
:1021CC001B687E4A43F480731360FEF71DFE386172
:1021DC0008E0FEF719FE02463B69D31A642B01D9BD
:1021EC00032303E1754B1B6803F48073002BF0D0C1
:1021FC007B68DB68012B06D16F4B1B6A6E4A43F080
:10220C00010313622DE07B68DB68002B0CD16A4B59
:10221C001B6A694A23F001031362674B1B6A664A07
:10222C0023F0040313621CE07B68DB68052B0CD1E4
:10223C00614B1B6A604A43F0040313625E4B1B6ADA
:10224C005D4A43F0010313620BE05B4B1B6A5A4A75
:10225C0023F001031362584B1B6A574A23F0040303
:10226C0013627B68DB68002B15D0FEF7CDFD38615F
:10227C000AE0FEF7C9FD02463B69D31A41F28832E7
:10228C00934201D90323B1E04B4B1B6A03F00203C9
:10229C00002BEED014E0FEF7B7FD38610AE0FEF734
:1022AC00B3FD02463B69D31A41F28832934201D9FD
:1022BC0003239BE0404B1B6A03F00203002BEED17F
:1022CC00FB7D012B05D13C4BDB693B4A23F0805352
:1022DC00D3617B68DB69002B00F08780364B5B6831
:1022EC0003F00C03082B61D07B68DB69022B46D111
:1022FC00334B00221A60FEF787FD386108E0FEF7C9
:10230C0083FD02463B69D31A022B01D903236DE0EE
:10231C00294B1B6803F00073002BF0D17B681B6A00
:10232C00B3F5803F08D1244B5B6823F400327B6803
:10233C009B68214913434B601F4B5B6823F4741259
:10234C007B68196A7B685B6A0B431B4913434B60C0
:10235C001B4B01221A60FEF757FD386108E0FEF7AF
:10236C0053FD02463B69D31A022B01D903233DE0EE
:10237C00114B1B6803F00073002BF0D035E0104BB1
:10238C0000221A60FEF740FD386108E0FEF73CFDC4
:10239C0002463B69D31A022B01D9032326E0064BD4
:1023AC001B6803F00073002BF0D11EE07B68DB6927
:1023BC00012B07D1012319E00010024000700040EE
:1023CC00600042420B4B5B68FB60FB6803F480329D
:1023DC007B681B6A9A4206D1FB6803F470127B6817
:1023EC005B6A9A4201D0012300E00023184618379B
:1023FC00BD4680BD0010024080B584B000AF78604F
:10240C0039607B68002B01D10123D0E06A4B1B683B
:10241C0003F007033A689A4210D9674B1B6823F004
:10242C00070265493B6813430B60634B1B6803F061
:10243C0007033A689A4201D00123B8E07B681B6815
:10244C0003F00203002B20D07B681B6803F004030D
:10245C00002B05D0594B5B68584A43F4E06353603A
:10246C007B681B6803F00803002B05D0534B5B689B
:10247C00524A43F460535360504B5B6823F0F002B4
:10248C007B689B684D4913434B607B681B6803F06A
:10249C000103002B40D07B685B68012B07D1474BB5
:1024AC001B6803F40033002B15D101237FE07B68FC
:1024BC005B68022B07D1414B1B6803F00073002BA8
:1024CC0009D1012373E03D4B1B6803F00203002B81
:1024DC0001D101236BE0394B5B6823F003027B686D
:1024EC005B68364913434B60FEF78EFCF8600AE0DC
:1024FC00FEF78AFC0246FB68D31A41F288329342FB
:10250C0001D9032353E02D4B5B6803F00C027B686D
:10251C005B689B009A42EBD1274B1B6803F00703C7
:10252C003A689A4210D2244B1B6823F007022249C6
:10253C003B6813430B60204B1B6803F007033A689E
:10254C009A4201D0012332E07B681B6803F004033C
:10255C00002B08D0194B5B6823F4E0627B68DB68C6
:10256C00164913434B607B681B6803F00803002B70
:10257C0009D0124B5B6823F460527B681B69DB004B
:10258C000E4913434B6000F021F802460B4B5B687D
:10259C001B0903F00F030A49CB5C22FA03F3094A27
:1025AC001360094B1B681846FEF7ECFB002318461A
:1025BC001037BD4680BD00BF002002400010024015
:1025CC00403B0008080000200C00002080B487B0BD
:1025DC0000AF0023FB600023BB6000237B61002362
:1025EC007B6000233B611E4B5B68FB60FB6803F068
:1025FC000C03042B02D0082B03D027E0194B3B61B2
:10260C0027E0FB689B0C03F00F03174AD35C7B603D
:10261C00FB6803F48033002B10D0114B5B685B0C10
:10262C0003F00103114AD35CBB607B680D4A03FBCA
:10263C0002F2BB68B2FBF3F37B6104E07B680C4AEB
:10264C0002FB03F37B617B693B6102E0054B3B6161
:10265C0000BF3B6918461C37BD4680BC704700BFA5
:10266C000010024000127A00583B0008683B00083A
:10267C0000093D0080B400AF024B1B681846BD46F4
:10268C0080BC70470800002080B500AFFFF7F2FF58
:10269C000246054B5B681B0A03F007030349CB5C3E
:1026AC0022FA03F3184680BD00100240503B00088C
:1026BC0080B500AFFFF7DEFF0246054B5B68DB0A17
:1026CC0003F007030349CB5C22FA03F3184680BDE1
:1026DC0000100240503B000880B485B000AF786019
:1026EC000A4B1B680A4AA2FB03235B0A7A6802FBAB
:1026FC0003F3FB6000BFFB685A1EFA60002BF9D194
:10270C0000BF00BF1437BD4680BC704708000020D6
:10271C00D34D621080B586B000AF786000233B616A
:10272C000023FB607B681B6803F00103002B7DD04A
:10273C000023FB754F4BDB6903F08053002B0DD14D
:10274C004C4BDB694B4A43F08053D361494BDB69FB
:10275C0003F08053BB60BB680123FB75464B1B68C1
:10276C0003F48073002B18D1434B1B68424A43F48B
:10277C0080731360FEF748FB386108E0FEF744FBFA
:10278C0002463B69D31A642B01D903236DE03A4B03
:10279C001B6803F48073002BF0D0364B1B6A03F4D8
:1027AC004073FB60FB68002B2ED07B685B6803F4E6
:1027BC004073FA689A4227D02E4B1B6A23F440735D
:1027CC00FB602E4B01221A602C4B00221A60294A06
:1027DC00FB681362FB6803F00103002B14D0FEF7B7
:1027EC0013FB38610AE0FEF70FFB02463B69D31A74
:1027FC0041F28832934201D9032336E01D4B1B6A08
:10280C0003F00203002BEED01A4B1B6A23F4407228
:10281C007B685B68174913430B62FB7D012B05D169
:10282C00144BDB69134A23F08053D3617B681B681C
:10283C0003F00203002B08D00E4B5B6823F44042DC
:10284C007B689B680B4913434B607B681B6803F0E8
:10285C001003002B08D0074B5B6823F480027B68C5
:10286C00DB68044913434B60002318461837BD46F8
:10287C0080BD00BF00100240007000404004424286
:10288C0080B582B000AF78607B68002B01D101234A
:10289C0076E07B685B6A002B08D17B685B68B3F5DC
:1028AC00827F09D07B680022DA6105E07B68002218
:1028BC001A617B6800225A617B6800229A627B68ED
:1028CC0093F85130DBB2002B06D17B68002283F8E1
:1028DC0050207868FEF73AF97B68022283F8512081
:1028EC007B681B681A687B681B6822F040021A60C0
:1028FC007B685B6803F482727B689B6803F4044317
:10290C001A437B68DB6803F400631A437B681B691A
:10291C0003F002031A437B685B6903F001031A435B
:10292C007B689B6903F400731A437B68DB6903F0D3
:10293C0038031A437B681B6A03F0800342EA0301E5
:10294C007B689B6A03F400527B681B680A431A601D
:10295C007B689B691A0C7B681B6802F004025A6046
:10296C007B681B68DA697B681B6822F40062DA6199
:10297C007B6800225A657B68012283F85120002372
:10298C0018460837BD4680BD80B588B000AFF860EA
:10299C00B9603B601346FB80FEF736FAF861FB88A2
:1029AC007B83FB6893F85130DBB2012B01D00223FF
:1029BC002AE1BB68002B02D0FB88002B01D101233C
:1029CC0022E1FB6893F85030012B01D102231BE16B
:1029DC00FB68012283F85020FB68032283F8512006
:1029EC00FB6800225A65FB68BA681A63FB68FA88B0
:1029FC009A86FB68FA88DA86FB6800229A63FB6881
:102A0C0000229A87FB680022DA87FB6800225A644E
:102A1C00FB6800221A64FB689B68B3F5004F0FD16A
:102A2C00FB681B681A68FB681B6822F040021A607E
:102A3C00FB681B681A68FB681B6842F480421A60CA
:102A4C00FB681B681B6803F04003402B07D0FB6836
:102A5C001B681A68FB681B6842F040021A60FB682E
:102A6C00DB68B3F5006F52D1FB685B68002B02D0BA
:102A7C007B8B012B45D1FB681B6B1A88FB681B6891
:102A8C00DA60FB681B6B9A1CFB681A63FB68DB8EB5
:102A9C009BB2013B9AB2FB68DA8632E0FB681B689A
:102AAC009B6803F00203022B12D1FB681B6B1A8884
:102ABC00FB681B68DA60FB681B6B9A1CFB681A636B
:102ACC00FB68DB8E9BB2013B9AB2FB68DA8618E09E
:102ADC00FEF79AF90246FB69D31A3A689A4203D870
:102AEC003B68B3F1FF3F02D13B68002B09D1FB6877
:102AFC00012283F85120FB68002283F85020032325
:102B0C0082E0FB68DB8E9BB2002BC7D153E0FB68E5
:102B1C005B68002B02D07B8B012B47D1FB681A6BB7
:102B2C00FB681B680C3312781A70FB681B6B5A1C01
:102B3C00FB681A63FB68DB8E9BB2013B9AB2FB68A5
:102B4C00DA8633E0FB681B689B6803F00203022BF8
:102B5C0013D1FB681A6BFB681B680C3312781A7064
:102B6C00FB681B6B5A1CFB681A63FB68DB8E9BB201
:102B7C00013B9AB2FB68DA8618E0FEF745F902468B
:102B8C00FB69D31A3A689A4203D83B68B3F1FF3F0A
:102B9C0002D13B68002B09D1FB68012283F851203C
:102BAC00FB68002283F8502003232DE0FB68DB8EAA
:102BBC009BB2002BC6D1FA693968F86800F0B0F8FE
:102BCC000346002B02D0FB6820225A65FB689B68E9
:102BDC00002B0AD100237B61FB681B68DB687B61DF
:102BEC00FB681B689B687B617B69FB68012283F82F
:102BFC005120FB68002283F85020FB685B6D002B92
:102C0C0001D0012300E0002318462037BD4680BDCB
:102C1C0080B588B000AFF860B9603B601346FB71BB
:102C2C00FEF7F2F80246BB6A9B1A3A681344FB6142
:102C3C00FEF7EAF8B861394B1B685B011B0DFA69AA
:102C4C0002FB03F37B6154E03B68B3F1FF3F50D0D0
:102C5C00FEF7DAF80246BB69D31AFA699A4202D92E
:102C6C00FB69002B3DD1FB681B685A68FB681B682D
:102C7C0022F0E0025A60FB685B68B3F5827F11D1E9
:102C8C00FB689B68B3F5004F04D0FB689B68B3F5F9
:102C9C00806F07D1FB681B681A68FB681B6822F001
:102CAC0040021A60FB689B6AB3F5005F0FD1FB68AA
:102CBC001B681A68FB681B6822F400521A60FB68D8
:102CCC001B681A68FB681B6842F400521A60FB68A8
:102CDC00012283F85120FB68002283F85020032343
:102CEC0017E07B69002B01D10023FB617B69013B61
:102CFC007B61FB681B689A68BB681340BA689A4290
:102D0C000CBF01230023DBB21A46FB799A429BD1FC
:102D1C00002318462037BD4680BD00BF08000020A8
:102D2C0080B586B002AFF860B9607A607B680093BA
:102D3C00BB6801220221F868FFF76AFF0346002BEB
:102D4C0007D0FB685B6D43F02002FB685A650323D8
:102D5C0013E07B680093BB6800228021F868FFF7C2
:102D6C0057FF0346002B07D0FB685B6D43F0200236
:102D7C00FB685A65032300E0002318461037BD4654
:102D8C0080BD80B582B000AF78607B68002B01D12C
:102D9C00012341E07B6893F83D30DBB2002B06D178
:102DAC007B68002283F83C207868FDF70DFF7B6878
:102DBC00022283F83D207B681A687B68043319462D
:102DCC00104600F091F97B68012283F846207B685D
:102DDC00012283F83E207B68012283F83F207B6828
:102DEC00012283F840207B68012283F841207B6814
:102DFC00012283F842207B68012283F843207B6800
:102E0C00012283F844207B68012283F845207B68EB
:102E1C00012283F83D20002318460837BD4680BDAB
:102E2C0080B584B000AF786039603B68002B09D165
:102E3C007B6893F83E30DBB2012B14BF01230023D7
:102E4C00DBB222E03B68042B09D17B6893F83F305E
:102E5C00DBB2012B14BF01230023DBB215E03B686E
:102E6C00082B09D17B6893F84030DBB2012B14BFDF
:102E7C0001230023DBB208E07B6893F84130DBB21E
:102E8C00012B14BF01230023DBB2002B01D0012343
:102E9C005EE03B68002B04D17B68022283F83E2065
:102EAC0013E03B68042B04D17B68022283F83F209B
:102EBC000BE03B68082B04D17B68022283F840208E
:102ECC0003E07B68022283F841207B681B680122A7
:102EDC003968184600F0FEFA7B681B681E4A93425C
:102EEC0007D17B681B685A6C7B681B6842F40042F4
:102EFC005A647B681B68184A93420ED07B681B6827
:102F0C00B3F1804F09D07B681B68144A934204D0FC
:102F1C007B681B68124A934211D17B681B689B68C3
:102F2C0003F00703FB60FB68062B10D07B681B6863
:102F3C001A687B681B6842F001021A6007E07B6824
:102F4C001B681A687B681B6842F001021A60002338
:102F5C0018461037BD4680BD002C014000040040CF
:102F6C000008004080B586B000AFF860B9607A60A8
:102F7C000023FB75FB6893F83C30012B01D1022335
:102F8C00AEE0FB68012283F83C207B680C2B00F23E
:102F9C009F8001A252F823F0D92F0008DD300008E1
:102FAC00DD300008DD30000819300008DD30000885
:102FBC00DD300008DD3000085B300008DD30000833
:102FCC00DD300008DD3000089B300008FB681B6812
:102FDC00B968184600F0F6F8FB681B689A69FB683C
:102FEC001B6842F008029A61FB681B689A69FB68CF
:102FFC001B6822F004029A61FB681B689969BB6824
:10300C001A69FB681B680A439A6164E0FB681B68D9
:10301C00B968184600F03CF9FB681B689A69FB68B4
:10302C001B6842F400629A61FB681B689A69FB6832
:10303C001B6822F480629A61FB681B689969BB6803
:10304C001B691A02FB681B680A439A6143E0FB6820
:10305C001B68B968184600F085F9FB681B68DA69CB
:10306C00FB681B6842F00802DA61FB681B68DA69CE
:10307C00FB681B6822F00402DA61FB681B68D969E3
:10308C00BB681A69FB681B680A43DA6123E0FB68BA
:10309C001B68B968184600F0CFF9FB681B68DA6941
:1030AC00FB681B6842F40062DA61FB681B68DA6932
:1030BC00FB681B6822F48062DA61FB681B68D969C3
:1030CC00BB681B691A02FB681B680A43DA6102E0E1
:1030DC000123FB7500BFFB68002283F83C20FB7DBD
:1030EC0018461837BD4680BD80B485B000AF7860F7
:1030FC0039607B681B68FB607B682F4A93420BD05E
:10310C007B68B3F1804F07D07B682C4A934203D085
:10311C007B682B4A934208D1FB6823F07003FB6059
:10312C003B685B68FA681343FB607B68224A9342F6
:10313C000BD07B68B3F1804F07D07B681F4A93425A
:10314C0003D07B681E4A934208D1FB6823F440737A
:10315C00FB603B68DB68FA681343FB60FB6823F099
:10316C0080023B685B691343FB607B68FA681A60FA
:10317C003B689A687B68DA623B681A687B689A627B
:10318C007B680D4A934203D13B681A697B681A63CA
:10319C007B6801225A617B681B6903F00103002BD9
:1031AC0005D07B681B6923F001027B681A6100BFA4
:1031BC001437BD4680BC7047002C01400004004011
:1031CC000008004080B487B000AF786039607B683D
:1031DC001B6A7B617B681B6A23F001027B681A62A5
:1031EC007B685B683B617B689B69FB60FB6823F0D9
:1031FC007003FB60FB6823F00303FB603B681B68F8
:10320C00FA681343FB607B6923F002037B613B6824
:10321C009B687A6913437B617B681C4A93420CD18F
:10322C007B6923F008037B613B68DB687A69134395
:10323C007B617B6923F004037B617B68134A9342B7
:10324C0011D13B6923F480733B613B6923F4007318
:10325C003B613B685B693A6913433B613B689B6923
:10326C003A6913433B617B683A695A607B68FA6838
:10327C009A613B685A687B685A637B687A691A6200
:10328C0000BF1C37BD4680BC704700BF002C0140FE
:10329C0080B487B000AF786039607B681B6A7B6153
:1032AC007B681B6A23F010027B681A627B685B6880
:1032BC003B617B689B69FB60FB6823F4E043FB602C
:1032CC00FB6823F44073FB603B681B681B02FA68C5
:1032DC001343FB607B6923F020037B613B689B6895
:1032EC001B017A6913437B617B681D4A93420DD1A4
:1032FC007B6923F080037B613B68DB681B017A6987
:10330C0013437B617B6923F040037B617B68144A28
:10331C00934213D13B6923F480633B613B6923F4F3
:10332C0000633B613B685B699B003A6913433B61FB
:10333C003B689B699B003A6913433B617B683A6924
:10334C005A607B68FA689A613B685A687B689A6332
:10335C007B687A691A6200BF1C37BD4680BC704717
:10336C00002C014080B487B000AF786039607B6876
:10337C001B6A7B617B681B6A23F480727B681A6210
:10338C007B685B683B617B68DB69FB60FB6823F0F7
:10339C007003FB60FB6823F00303FB603B681B6856
:1033AC00FA681343FB607B6923F400737B613B6811
:1033BC009B681B027A6913437B617B681D4A9342AD
:1033CC000DD17B6923F400637B613B68DB681B02D6
:1033DC007A6913437B617B6923F480637B617B682F
:1033EC00144A934213D13B6923F480533B613B69EC
:1033FC0023F400533B613B685B691B013A6913433F
:10340C003B613B689B691B013A6913433B617B68D9
:10341C003A695A607B68FA68DA613B685A687B687B
:10342C00DA637B687A691A6200BF1C37BD4680BCC0
:10343C00704700BF002C014080B487B000AF7860AB
:10344C0039607B681B6A3B617B681B6A23F4805282
:10345C007B681A627B685B687B617B68DB69FB60FD
:10346C00FB6823F4E043FB60FB6823F44073FB60D0
:10347C003B681B681B02FA681343FB603B6923F42F
:10348C0000533B613B689B681B033A6913433B61E8
:10349C007B680F4A934209D17B6923F480437B619B
:1034AC003B685B699B017A6913437B617B687A6932
:1034BC005A607B68FA68DA613B685A687B681A6400
:1034CC007B683A691A6200BF1C37BD4680BC7047E6
:1034DC00002C014080B487B000AFF860B9607A600E
:1034EC00BB6803F01F03012202FA03F37B61FB6844
:1034FC001A6A7B69DB431A40FB681A62FB681A6A1A
:10350C00BB6803F01F03796801FA03F31A43FB68E5
:10351C001A6200BF1C37BD4680BC704780B485B0B2
:10352C0000AF786039607B6893F83C30012B01D197
:10353C00022346E07B68012283F83C207B68022250
:10354C0083F83D207B681B685B68FB607B681B68AD
:10355C009B68BB60FB6823F07003FB603B681B68D7
:10356C00FA681343FB607B681B68FA685A607B68D7
:10357C001B68164A93420ED07B681B68B3F1804FD0
:10358C0009D07B681B68124A934204D07B681B6885
:10359C00104A93420CD1BB6823F08003BB603B689C
:1035AC005B68BA681343BB607B681B68BA689A6037
:1035BC007B68012283F83D207B68002283F83C2045
:1035CC00002318461437BD4680BC7047002C0140C0
:1035DC00000400400008004080B485B000AF786063
:1035EC0039600023FB607B6893F83C30012B01D1E0
:1035FC0002233DE07B68012283F83C20FB6823F02A
:10360C00FF023B68DB681343FB60FB6823F44072EA
:10361C003B689B681343FB60FB6823F480623B6848
:10362C005B681343FB60FB6823F400623B681B6818
:10363C001343FB60FB6823F480523B681B69134304
:10364C00FB60FB6823F400523B685B691343FB602F
:10365C00FB6823F480423B68DB691343FB607B68A7
:10366C001B68FA685A647B68002283F83C200023AC
:10367C0018461437BD4680BC704780B582B000AF89
:10368C0078607B68002B01D1012342E07B6893F8C2
:10369C004130DBB2002B06D17B68002283F840203E
:1036AC007868FDF7AFFA7B68242283F841207B68A9
:1036BC001B68DA687B681B6822F40052DA60786851
:1036CC0000F072F97B681B681A697B681B6822F42E
:1036DC0090421A617B681B685A697B681B6822F0F0
:1036EC002A025A617B681B68DA687B681B6842F4A3
:1036FC000052DA607B6800225A647B68202283F8CF
:10370C0041207B68202283F842207B6800225A6388
:10371C00002318460837BD4680BD80B58AB002AF7D
:10372C00F860B9603B601346FB8000237B61FB684B
:10373C0093F84130DBB2202B75D1BB68002B02D043
:10374C00FB88002B01D101236EE0FB6800225A6438
:10375C00FB68212283F84120FDF756FB7861FB685A
:10376C00FA889A84FB68FA88DA84FB689B68B3F55C
:10377C00805F08D1FB681B69002B04D10023FB611F
:10378C00BB68BB6103E0BB68FB610023BB612EE03F
:10379C003B6800937B6900228021F86800F048F8B0
:1037AC000346002B05D0FB68202283F8412003231D
:1037BC003AE0FB69002B0BD1BB691B881A46FB68EE
:1037CC001B68C2F308025A60BB690233BB6107E095
:1037DC00FB691A78FB681B685A60FB690133FB6153
:1037EC00FB68DB8C9BB2013B9AB2FB68DA84FB680A
:1037FC00DB8C9BB2002BCBD13B6800937B69002206
:10380C004021F86800F014F80346002B05D0FB6843
:10381C00202283F84120032306E0FB68202283F852
:10382C004120002300E0022318462037BD4680BD0E
:10383C0080B586B000AFF860B9603B601346FB7191
:10384C003BE03B6AB3F1FF3F37D0FDF7DDFA0246B0
:10385C003B68D31A3A6A9A4202D33B6A002B01D1D5
:10386C0003233AE0FB681B68DB6803F00403002BBE
:10387C0023D0BB68802B20D0BB68402B1DD0FB68AD
:10388C001B681B6803F00803082B16D100237B610F
:10389C00FB681B681B687B61FB681B685B687B6152
:1038AC007B69F86800F01DF8FB6808225A64FB6815
:1038BC00002283F8402001230FE0FB681B681A6884
:1038CC00BB681340BA689A420CBF01230023DBB2D9
:1038DC001A46FB799A42B4D0002318461837BD46D5
:1038EC0080BD80B495B000AF78607B681B680C33EA
:1038FC007B637B6B53E8003F3B633B6B23F4907320
:10390C00FB647B681B680C33FA6C3A64FB63F96BE1
:10391C003A6C41E80023BB63BB6B002BE5D17B68A1
:10392C001B6814333B623B6A53E8003FFB61FB6945
:10393C0023F00103BB647B681B681433BA6CFA6216
:10394C00BB62B96AFA6A41E800237B627B6A002B8E
:10395C00E5D17B681B6B012B19D17B681B680C3381
:10396C00FB60FB6853E8003FBB60BB6823F01003AF
:10397C007B647B681B680C337A6CBA617B617969F8
:10398C00BA6941E800233B613B69002BE5D17B68B8
:10399C00202283F842207B6800221A6300BF543730
:1039AC00BD4680BC7047000080B584B000AF786025
:1039BC007B681B681B6923F440517B68DA687B6861
:1039CC001B680A431A617B689A687B681B691A43F7
:1039DC007B685B691343BB607B681B68DB6823F403
:1039EC00B05323F00C037A681268B9680B43D360A8
:1039FC007B681B685B6923F440717B689A697B6800
:103A0C001B680A435A617B681B682C4A934203D19A
:103A1C00FEF74EFEF86002E0FEF736FEF860FA683C
:103A2C0013469B0013449A001A447B685B689B0006
:103A3C00B2FBF3F3224AA2FB03235B091901FA68D8
:103A4C0013469B0013449A001A447B685B689B00E6
:103A5C00B2FBF3F21A4BA3FB02035B09642000FBDD
:103A6C0003F3D31A1B013233154AA2FB03235B0960
:103A7C0003F0F0031944FA6813469B0013449A00B0
:103A8C001A447B685B689B00B2FBF3F20C4BA3FB04
:103A9C0002035B09642000FB03F3D31A1B013233CE
:103AAC00074AA2FB03235B0903F00F027B681B6828
:103ABC000A449A6000BF1037BD4680BD00380140F3
:103ACC001F85EB5103460244934200D1704703F823
:103ADC00011BF9E770B500260C4D0D4C641BA410AE
:103AEC00A64209D100F01AF800260A4D0A4C641BB4
:103AFC00A410A64205D170BD55F8043B9847013679
:103B0C00EEE755F8043B98470136F2E76C3B0008AA
:103B1C006C3B00086C3B0008703B0008F8B500BF1C
:103B2C00F8BC08BC9E467047F8B500BFF8BC08BC92
:043B3C009E467047EA
:103B4000000000000000000001020304060708094D
:103B5000000000000102030402030405060708092F
:0C3B60000A0B0C0D0E0F101001020000EB
:043B6C00310100081B
:043B70000D0100083B
:103B740048656C6C6F0D0A0000127A00100000009A
:043B8400010000003C
:0400000508000D19C9
:00000001FF
